:100000000C9462000C948A000C948A000C948A0070
:100010000C948A000C948A000C948A000C948A0038
:100020000C948A000C948A000C948A000C948A0028
:100030000C948A000C948A000C948A000C948A0018
:100040000C94D5040C948A000C9445050C941F055F
:100050000C948A000C948A000C948A000C948A00F8
:100060000C948A000C948A000000000023002600F3
:10007000290000000000240027002A0000000000E2
:10008000250028002B0004040404040404040202D4
:100090000202020203030303030301020408102007
:1000A0004080010204081020010204081020000012
:1000B0000008000201000003040700000000000027
:1000C0000000770511241FBECFEFD8E0DEBFCDBF03
:1000D00022E0AAE6B1E001C01D92A631B207E1F725
:1000E00011E0A0E0B1E0E0E8FDE002C005900D9273
:1000F000AA36B107D9F710E0C2E6D0E004C02197D4
:10010000FE010E94B306C136D107C9F70E94080656
:100110000C94BE060C940000CF92DF92EF92FF92F7
:100120000F931F93CF93DF936C017A018B01C0E093
:10013000D0E0CE15DF0589F0D8016D918D01D60193
:10014000ED91FC910190F081E02DC6010995892B7C
:1001500011F47E0102C02196ECCFC701DF91CF914F
:100160001F910F91FF90EF90DF90CF900895089529
:1001700080E090E00895FC01538D448D252F30E000
:10018000842F90E0821B930B541710F0CF960895A4
:1001900001970895FC01918D828D981761F0828DF1
:1001A000DF01A80FB11D5D968C91928D9F5F9F73AB
:1001B000928F90E008958FEF9FEF0895FC01918D4D
:1001C000828D981731F0828DE80FF11D858D90E0BA
:1001D00008958FEF9FEF0895FC01918D228D892F57
:1001E00090E0805C9F4F821B91098F73992708953F
:1001F00083E791E00E94EC0021E0892B09F420E0E4
:10020000822F0895FC01848DDF01A80FB11DA35A30
:10021000BF4F2C91848D90E001968F739927848F26
:10022000A689B7892C93A089B1898C9180648C931D
:10023000938D848D981306C00288F389E02D808108
:100240008F7D80830895EF92FF920F931F93CF933A
:10025000DF93EC0181E0888F9B8D8C8D981305C016
:10026000E889F989808185FD24C0F62E0B8D10E088
:100270000F5F1F4F0F731127E02E8C8DE8120CC0FB
:100280000FB607FCFACFE889F989808185FFF5CFA1
:10029000CE010E940201F1CF8B8DFE01E80FF11D0E
:1002A000E35AFF4FF0820B8FEA89FB8980818062DD
:1002B00007C0EE89FF896083E889F98980818064BD
:1002C000808381E090E0DF91CF911F910F91FF90AB
:1002D000EF900895CF93DF93EC01888D8823C9F0C8
:1002E000EA89FB89808185FD05C0A889B9898C913F
:1002F00086FD0FC00FB607FCF5CF808185FFF2CFDA
:10030000A889B9898C9185FFEDCFCE010E940201A9
:10031000E7CFDF91CF91089580E090E0892B29F01D
:100320000E94F80081110C9400000895833081F040
:1003300028F4813099F08230A1F008958730A9F037
:100340008830B9F08430D1F4809180008F7D03C073
:10035000809180008F7780938000089584B58F7797
:1003600002C084B58F7D84BD08958091B0008F77E1
:1003700003C08091B0008F7D8093B00008951F93DB
:10038000CF93DF93282F30E0F901E255FF4F84919E
:10039000F901E656FF4FD491F901EA57FF4FC49196
:1003A000CC23C9F0162F81110E949601EC2FF0E0AA
:1003B000EE0FFF1FE458FF4FA591B4918FB7F8944B
:1003C000111105C09C91ED2FE095E92302C0EC913D
:1003D000ED2BEC938FBFDF91CF911F910895CF93B9
:1003E000DF9390E0FC01E656FF4F2491FC01EA57B1
:1003F000FF4F8491882361F190E0880F991FFC01E1
:10040000EE58FF4FC591D491FC01E458FF4FA591E0
:10041000B491611109C09FB7F89488812095822317
:100420008883EC912E230BC0623061F49FB7F8945F
:100430003881822F809583238883EC912E2B2C93F7
:100440009FBF06C08FB7F894E8812E2B28838FBFFB
:10045000DF91CF910895BF92CF92DF92EF92FF92FA
:100460000F931F93CF93DF93EC0160E08B810E9489
:10047000EF0161E08B810E94BF0108E010E0D12C08
:10048000ED2CF12CF594E794DE2C60E08C810E9439
:10049000BF012B8130E0F901E255FF4F8491F90152
:1004A000E656FF4FB490F901EA57FF4FC490CC20B5
:1004B00071F081110E949601EC2DF0E0EE0FFF1F0C
:1004C000E859FF4FA591B491EC91EB21D1F461E093
:1004D0008C810E94BF010150110991F661E08B816E
:1004E0000E94EF0160E08B810E94BF018D2DDF91A2
:1004F000CF911F910F91FF90EF90DF90CF90BF9021
:1005000008958E2D8068D82EE2CFFF920F931F930F
:10051000CF93DF938C01F62EC8E0D0E060E0F801C5
:1005200084810E94BF016F2D6170F80183810E9458
:10053000BF01F69461E0F80184810E94BF01219718
:1005400069F7DF91CF911F910F91FF900895EF927E
:10055000FF921F93CF93DF931F92CDB7DEB77C013D
:10056000162FDC01ED91FC910288F389E02D64E403
:100570004983099560E0F70185810E94BF01D70199
:10058000ED91FC91612F606C0688F789E02DC70121
:100590000995D701ED91FC910688F789E02D4981F5
:1005A000642FC701099561E0F70185810F90DF9104
:1005B000CF911F91FF90EF900C94BF011F93CF93A9
:1005C000DF93EC01162F60E08D810E94BF01E8816E
:1005D000F9810688F789E02D612FCE01099561E048
:1005E0008D81DF91CF911F910C94BF013F924F926B
:1005F0005F926F927F928F929F92AF92BF92CF92B3
:10060000DF92EF92FF920F931F93CF93DF937C01C2
:100610006B014A01322EDB011496AD90BC90159708
:10062000C0E0D0E0422E512C66246394712CF70177
:10063000828190E09C0124193509C217D307C4F5C3
:10064000CA15DB05ACF5D701ED91FC910088F18965
:10065000E02D8C1B9D0B0197930102C0220F331FCD
:100660008A95E2F7C9018821992121E0892B09F4B3
:1006700020E0D60114968D919C911597C817D90743
:1006800048F48D919C91009729F0DC01AC0FBD1FBF
:100690008C9101C080E0D801A80FB11D87FDBA95EB
:1006A00090976C2F630D4C91C70109952196BFCF90
:1006B000DF91CF911F910F91FF90EF90DF90CF903E
:1006C000BF90AF909F908F907F906F905F904F9072
:1006D0003F9008955F926F927F928F929F92AF9218
:1006E000BF92CF92DF92EF92FF920F931F93CF931F
:1006F000DF936C014A01522E7B01C0E0D0E0A22EB4
:10070000B12C66246394712CD60112968C9190E0E2
:100710009C012A193B09C217D30744F5D7013D9123
:100720007D01332319F1D601ED91FC918C1B9D0BBA
:100730000197A30102C0440F551F8A95E2F7CA0131
:100740008821992121E0892B09F420E0D801A30F09
:10075000B11D37FDBA9590976C2F650D0088F18912
:10076000E02D4C91C60109952196CECFDF91CF9116
:100770001F910F91FF90EF90DF90CF90BF90AF90BF
:100780009F908F907F906F905F9008950F931F932D
:10079000CF93DF938C01C0E0D0E0F801228130E0FC
:1007A000C217D3076CF4D801ED91FC916C2F660F42
:1007B0000488F589E02D40E0C80109952196EDCF28
:1007C000DF91CF911F910F910895CF92DF92EF9219
:1007D000FF921F93CF93DF936C017B01E40EF51E14
:1007E000C62FD72F162F1095CE15DF0569F049912A
:1007F000D601ED91FC916C2F610F0088F189E02DFD
:1008000020E0C6010995F0CFDF91CF911F91FF90B5
:10081000EF90DF90CF900895242FDC01ED91FC91B3
:100820000088F189E02D40E009940F931F93CF9346
:10083000DF93EC01E881F9810084F185E02D48E047
:1008400050E060E071E0099508E010E08A8190E0F6
:100850000817190764F4E881F9810680F781E02D13
:1008600040E0602FCE0109950F5F1F4FEFCFDF9162
:10087000CF911F910F9108950F931F93CF93DF9303
:10088000EC01842FE881F981962F9F70D801A90F80
:10089000B11D0088F189E02D4C91682FCE01DF91C8
:1008A000CF911F910F910994CF93DF93EC01E881D1
:1008B000F9810288F389E02D611102C060E801C06E
:1008C00068E8483008F047E0642BCE01099560E005
:1008D0008D810E94BF0160E08C810E94BF0161E0B8
:1008E0008C810E94BF0161E08D81DF91CF910C94DA
:1008F000BF01DC01ED91FC910488F589E02D211107
:1009000020E8422B660F0994DF92EF92FF920F933B
:100910001F93CF93DF938C0160E0DC0115968C91DF
:100920000E94BF01D801ED91FC910688F789E02D66
:1009300062E4C8010995E12CF12CD12CD801ED918C
:10094000FC91008CF18DE02DC8010995C82F0E2C6B
:1009500001C0CC0F0A94EAF7CD29DC2EBFEFEB1AC9
:10096000FB0AE4E0EE16F10449F761E0D8011596C0
:100970008C910E94BF018C2FDF91CF911F910F911D
:10098000FF90EF90DF900895DC01862FED91FC91B0
:100990001197942F990F61E0690F0488F589E02D74
:1009A000482FCD0109940E94B9061F920F920FB6ED
:1009B0000F9211242F933F938F939F93AF93BF93E5
:1009C00080916F0190917001A0917101B0917201BD
:1009D00030916E0123E0230F2D3720F40196A11DE5
:1009E000B11D05C026E8230F0296A11DB11D20935D
:1009F0006E0180936F0190937001A0937101B09389
:100A0000720180916A0190916B01A0916C01B0918B
:100A10006D010196A11DB11D80936A0190936B0138
:100A2000A0936C01B0936D01BF91AF919F918F9195
:100A30003F912F910F900FBE0F901F9018951F920E
:100A40000F920FB60F9211242F933F934F935F9302
:100A50006F937F938F939F93AF93BF93EF93FF9386
:100A600083E791E00E940201FF91EF91BF91AF9166
:100A70009F918F917F916F915F914F913F912F91B6
:100A80000F900FBE0F901F9018951F920F920FB6E8
:100A90000F9211242F938F939F93EF93FF93E091E5
:100AA0008301F09184018081E0918901F0918A01B4
:100AB00082FD12C0908180918C018F5F8F73209195
:100AC0008D01821751F0E0918C01F0E0ED58FE4F5E
:100AD000958F80938C0101C08081FF91EF919F9150
:100AE0008F912F910F900FBE0F901F901895CF935D
:100AF000DF93109276011092750188EE93E0A0E0EA
:100B0000B0E08093770190937801A0937901B0933E
:100B10007A018CE191E0909374018093730185ECEC
:100B200090E09093800180937F0184EC90E090931B
:100B300082018093810180EC90E090938401809306
:100B4000830181EC90E0909386018093850182EC93
:100B500090E0909388018093870186EC90E09093D9
:100B60008A018093890110928C0110928D0110925C
:100B70008E0110928F018EE291E09093110280938A
:100B8000100288E08093130299E0909314029AE097
:100B9000909315028093120261E00E94EF0161E0E0
:100BA00089E00E94EF0161E08AE00E94EF0161E0CC
:100BB0008AE00E94BF0161E089E00E94BF0160E419
:100BC00080E192E00E94DE026FE880E192E00E9404
:100BD000DE0260E08AE00E94BF0160EC80E192E00A
:100BE0000E948502C0E1D0E060E080E192E00E94D6
:100BF00085022197C9F761E08AE00E94BF018CE479
:100C000091E09093110280931002DF91CF910895AB
:100C1000789484B5826084BD84B5816084BD85B5D7
:100C2000826085BD85B5816085BD80916E008160E3
:100C300080936E0010928100809181008260809389
:100C4000810080918100816080938100809180008B
:100C50008160809380008091B10084608093B100B6
:100C60008091B00081608093B00080917A008460B0
:100C700080937A0080917A00826080937A008091DC
:100C80007A00816080937A0080917A0080688093F6
:100C90007A001092C100E0918301F091840182E01A
:100CA0008083E0917F01F09180011082E0918101C9
:100CB000F09182018FEC808310928B01E09187018B
:100CC000F091880186E08083E0918501F0918601B2
:100CD000808180618083E0918501F091860180812F
:100CE00088608083E0918501F09186018081806831
:100CF0008083E0918501F091860180818F7D8083E2
:100D000083E791E00E94EC00181619064CF583E782
:100D100091E00E94CA007C01C0E0D0E06C01DD24BB
:100D200040911202842F90E0C817D907A4F44150D3
:100D30004C1BB6010C2E02C0759567950A94E2F71C
:100D40006170772708E011E020E080E192E00E94E6
:100D50003C042196E5CF6E2D83E791E00E942301AC
:100D60000E948C01CDCFEE0FFF1F0590F491E02D76
:100D7000099481E090E0F8940C94BE06F894FFCFBB
:100D80007950505C500000003F065B4F666D7D0758
:100D90007F6F777C395E79710000000023018C0041
:100DA000BB006A01EC00CA00DE0000000000540431
:100DB0003C0415040C04E503C6036A03F602D304DD
:100DC000DE02A70285022B020000000054043C044E
:100DD00015040C04E503C6036A03F6027904DE0277
:0A0DE000A70285022B02C40484045C
:00000001FF
